S01200004156525F4472697665722E737265635E
S11300000C9432000C940E050C9437050C94600586
S11300100C9498070C946F070C9448070C94FA06F8
S11300200C9421070C94D3060C94AC060C94830610
S11300300C944F000C944F000C944F000C944F0000
S11300400C944F000C944F000C944F000C944F00F0
S11300500C944F00E505EF05F90503060D06170698
S113006021062B0611241FBECFE5D8E0DEBFCDBF8D
S113007010E0A0E6B0E0E4E4F0E102C005900D92E7
S1130080AC39B107D9F720E0ACE9B0E001C01D926A
S1130090AE3BB207E1F70E94D0020C9420080C9406
S11300A0000083B78E7F83BF83B7826083BF83B72B
S11300B08B7F83BF089583B78E7F83BF83B78D7F84
S11300C083BF83B78B7F83BF089580919C00811188
S11300D00DC080919D00811109C080916000811143
S11300E005C061E088E10E94CE0305C080916000F4
S11300F081508093600080919D00882361F08091FD
S11301006000811108C08CE38093600080919D00A1
S1130110815080939D0080919C00882381F0809180
S11301209D0081110CC080916000811108C08CE396
S113013080939D0080919C00815080939C00089541
S1130140CF93DF93C0E0D0E00E9419018E32E1F337
S113015090ED980F9A3048F4DD0F9D2F990F990F69
S1130160D90F8D0FD0EDD80FCF5FC23019F4D093D3
S11301709C00D0E0C43019F4D0939D00D0E0C63088
S113018019F7D0936000DF91CF91089578940E947D
S1130190BE030E94CA0140E062E082E00E94B7050B
S11301A080E00E94E70463E080E00E948B046BE53A
S11301B070E080E00E94F90481E00E94E70463E0BB
S11301C081E00E948B0461E570E081E00E94F90403
S11301D082E00E94E70463E082E00E948B0460EA0C
S11301E070E082E00E94F90463E080E00E94610212
S11301F081E690E00E947D0265E670E081E090E097
S11302000E94610664E081E00E94610280919C008A
S11302100E9496028AE30E94740280919D000E94CB
S113022096028AE30E947402809160000E94960202
S1130230E3CFFF920F931F93CF93DF9361E080E1AD
S11302400E94CE0361E081E10E94CE0361E082E17D
S11302500E94CE0361E083E10E94CE030F2EFEE2F2
S1130260FF2EF02D10E027C000E1010F60E0802F89
S11302700E94CE03D0E018C0C4E1CD0F8C2F0E94A1
S11302805304811110C0E12FF0E0EE0FFF1FEE0FB9
S1130290FF1FE459FF4FED0FF11DF0808C2F0E94DA
S11302A053048823D9F3DF5FD43030F361E0802F27
S11302B00E94CE031F5F1430B8F28F2DDF91CF91CF
S11302C01F910F91FF900895CF93C82F84FB662749
S11302D060F984E00E94CE03C5FB662760F985E0DF
S11302E00E94CE03C6FB662760F986E00E94CE0317
S11302F06C2F661F6627661F87E00E94CE0360E0AE
S113030088E00E94CE0360E089E00E94CE0361E0B1
S11303108BE00E94CE038FEC97E00197F1F700C0C9
S1130320000060E08BE00E94CE036C2F617084E0DB
S11303300E94CE03C1FB662760F985E00E94CE03CC
S1130340C2FB662760F986E00E94CE03C3FB6627E2
S113035060F987E00E94CE0360E088E00E94CE034B
S113036060E089E00E94CE0361E08BE00E94CE034E
S11303708FEC97E00197F1F700C0000060E08BE09C
S11303800E94CE038FE097E20197F1F700C00000CE
S1130390CF9108958FE39CE90197F1F700C0000025
S11303A082E00E9464018FEC97E00197F1F700C0AE
S11303B0000088E20E9464018FEC97E00197F1F756
S11303C000C000008CE00E9464018FEC97E001976C
S11303D0F1F700C0000081E00E9464018FE99FE012
S11303E00197F1F700C0000086E00E9464018FECE1
S11303F097E00197F1F700C0000080E80E946401D3
S11304000895CF93C82F84FB662760F984E00E9487
S1130410CE03C5FB662760F985E00E94CE03C6FBC8
S1130420662760F986E00E94CE036C2F661F66275C
S1130430661F87E00E94CE0361E088E00E94CE033D
S113044060E089E00E94CE0361E08BE00E94CE036D
S11304508FEC97E00197F1F700C0000060E08BE0BB
S11304600E94CE036C2F617084E00E94CE03C1FB16
S1130470662760F985E00E94CE03C2FB662760F917
S113048086E00E94CE03C3FB662760F987E00E94E2
S1130490CE0361E088E00E94CE0360E089E00E9420
S11304A0CE0361E08BE00E94CE038FEC97E00197CE
S11304B0F1F700C0000060E08BE00E94CE03CF9112
S11304C00895882329F0813031F080E090E005C060
S11304D080E890E002C080EC90E0603110F4860F78
S11304E0911D0E94640108950E9401028FEC97E01F
S11304F00197F1F700C0000008950F931F93CF9365
S11305008C01C0E009C00E9401028FEC97E00197C2
S1130510F1F700C00000CF5FF801EC0FF11D8081FE
S11305208111F1CFCF911F910F9108951F93CF9314
S1130530DF93D82F882324F4D1958DE20E94010201
S113054089E2D802812D1124859585958595859517
S11305501D2F110F110B811B9D2F24E6829F9019D3
S11305601124C7E69C02812D11248595859597FD5C
S11305708395805D0E940102DC02C12D1124C59582
S1130580C595C11BCC0F8C2F880F880FC80F8D2FDA
S11305908C1B805D0E940102DF91CF911F91089511
S11305A00E94C60080E090E00895982F9695969555
S11305B096958770613031F008F454C0623009F4C4
S11305C0A1C008959130C1F028F0923039F19330F0
S11305D0B9F108954AB321E030E0B90102C0660FD1
S11305E0771F8A95E2F7CB01962F909594239ABBB7
S11305F09BB3892B8BBB089547B321E030E0B9014D
S113060002C0660F771F8A95E2F7CB01962F90956B
S1130610942397BB98B3892B88BB089544B321E0F6
S113062030E0B90102C0660F771F8A95E2F7CB016B
S1130630962F9095942394BB95B3892B85BB0895ED
S113064041B321E030E0B90102C0660F771F8A95FB
S1130650E2F7CB01962F9095942391BB92B3892B0B
S113066082BB08959130C1F028F0923039F1933073
S1130670B9F108954AB321E030E0B90102C0660F30
S1130680771F8A95E2F7CB018095942F98239ABB24
S11306909BB389238BBB089547B321E030E0B901B4
S11306A002C0660F771F8A95E2F7CB018095942FDD
S11306B0982397BB98B3892388BB089544B321E05A
S11306C030E0B90102C0660F771F8A95E2F7CB01CB
S11306D08095942F982394BB95B3892385BB089563
S11306E041B321E030E0B90102C0660F771F8A955B
S11306F0E2F7CB018095942F982391BB92B3892381
S113070082BB0895913099F028F09230E9F093304B
S113071041F108954AB321E030E0B90102C0660F07
S1130720771F8A95E2F7CB01842B8ABB089547B3E0
S113073021E030E0B90102C0660F771F8A95E2F725
S1130740CB01842B87BB089544B321E030E0B90189
S113075002C0660F771F8A95E2F7CB01842B84BB16
S1130760089541B321E030E0B90102C0660F771F5C
S11307708A95E2F7CB01842B81BB0895CF93C0E027
S113078009C0EC2FF0E0E458FF4F60818C2F0E94E9
S1130790D502CF5FC032A8F3CF910895982F9695D4
S11307A09695969587706130E1F5913099F028F02F
S11307B09230E9F0933041F108954BB321E030E0F9
S11307C0B90102C0660F771F8A95E2F7CB01842B2B
S11307D08BBB089548B321E030E0B90102C0660F35
S11307E0771F8A95E2F7CB01842B88BB089545B324
S11307F021E030E0B90102C0660F771F8A95E2F765
S1130800CB01842B85BB089542B321E030E0B901CC
S113081002C0660F771F8A95E2F7CB01842B82BB57
S1130820089561113FC09130A1F028F09230F9F0A1
S1130830933059F108954BB321E030E0B90102C07F
S1130840660F771F8A95E2F7CB01809584238BBBD3
S1130850089548B321E030E0B90102C0660F771F64
S11308608A95E2F7CB018095842388BB089545B32C
S113087021E030E0B90102C0660F771F8A95E2F7E4
S1130880CB018095842385BB089542B321E030E0F9
S1130890B90102C0660F771F8A95E2F7CB018095F4
S11308A0842382BB0895982F969596959695482F04
S11308B04770913081F028F09230B9F09330F9F01C
S11308C028C099B3892F90E002C0959587954A95E1
S11308D0E2F78170089526B330E0C90102C095950E
S11308E087954A95E2F78170089523B330E0C901F2
S11308F002C0959587954A95E2F78170089520B3D3
S113090030E0C90102C0959587954A95E2F7817058
S1130910089580E00895813049F120F0823009F48F
S113092049C00895613069F028F0623089F063307D
S1130930B1F0089585B78E7F85BF85B78D7F85BF5C
S1130940089585B7816085BF85B78D7F85BF08957C
S113095085B78E7F85BF85B7826085BF089585B7CB
S1130960816085BF85B7826085BF0895613069F075
S113097028F0623089F06330B1F0089585B78B7F39
S113098085BF85B7877F85BF089585B7846085BF98
S113099085B7877F85BF089585B78B7F85BF85B76A
S11309A0886085BF089585B7846085BF85B78860F2
S11309B085BF0895623019F0633029F0089584B733
S11309C08F7B84BF089584B7806484BF0895813089
S11309D041F018F0823049F008958BB780648BBFE2
S11309E008958BB780688BBF08958BB780628BBFE7
S11309F00895813049F018F0823059F008957093C9
S1130A00A3006093A20008957093A1006093A000D6
S1130A10089570939F0060939E0008951F920F9213
S1130A200FB60F9211242F933F934F935F936F93BD
S1130A307F938F939F93AF93BF93EF93FF93E09133
S1130A40A200F091A300309709F00995FF91EF916E
S1130A50BF91AF919F918F917F916F915F914F91D2
S1130A603F912F910F900FBE0F901F9018951F92DA
S1130A700F920FB60F9211242F933F934F935F93CE
S1130A806F937F938F939F93AF93BF93EF93FF9352
S1130A90E091A000F091A100309709F00995FF9131
S1130AA0EF91BF91AF919F918F917F916F915F91E2
S1130AB04F913F912F910F900FBE0F901F9018955B
S1130AC01F920F920FB60F9211242F933F934F93BF
S1130AD05F936F937F938F939F93AF93BF93EF93A2
S1130AE0FF93E0919E00F0919F00309709F00995E3
S1130AF0FF91EF91BF91AF919F918F917F916F91F2
S1130B005F914F913F912F910F900FBE0F901F90C7
S1130B1018958091A4009091A500A091A600B09191
S1130B20A7000196A11DB11D8093A4009093A50078
S1130B30A093A600B093A7004091A8005091A900EB
S1130B406091AA007091AB0084179507A607B707B8
S1130B5069F4E091AC00F091AD0009951092A40005
S1130B601092A5001092A6001092A700089581305B
S1130B7069F028F0823089F08330B1F01BC083B76C
S1130B808F7B83BF83B7877F83BF14C083B78064A1
S1130B9083BF83B7877F83BF0DC083B78F7B83BF3A
S1130BA083B7886083BF06C083B7806483BF83B77D
S1130BB0886083BF862F90E08830910508F054C088
S1130BC0FC01E65DFF4F0C94DE0783B78E7F83BF85
S1130BD083B78D7F83BF83B78B7F83BF45C083B7C4
S1130BE0816083BF83B78D7F83BF83B78B7F83BFD0
S1130BF03BC083B78E7F83BF83B7826083BF83B7D5
S1130C008B7F83BF31C083B7816083BF83B782602A
S1130C1083BF83B78B7F83BF27C083B78E7F83BF98
S1130C2083B78D7F83BF83B7846083BF1DC083B7C1
S1130C30816083BF83B78D7F83BF83B7846083BFA5
S1130C4013C083B78E7F83BF83B7826083BF83B7AC
S1130C50846083BF09C083B7816083BF83B7826028
S1130C6083BF83B7846083BF413069F028F042308A
S1130C70C1F0433079F0089583B78F7E83BF83B783
S1130C808F7D83BF089583B7806183BF83B78F7DD2
S1130C9083BF089583B78F7E83BF83B7806283BF8A
S1130CA0089583B7806183BF83B7806283BF08954B
S1130CB089B7826089BF08959093AF008093AE0096
S1130CC008957093AD006093AC00DC0120E432E43D
S1130CD04FE050E00E94F30728EC30E040E050E0A1
S1130CE00E94BF072093A8003093A9004093AA0054
S1130CF05093AB0088EC8CBF89E895E00E945C06B9
S1130D000E94580608951F920F920FB60F92112455
S1130D102F933F934F935F936F937F938F939F93FF
S1130D20AF93BF93EF93FF93E091B000F091B100C4
S1130D30309709F00995FF91EF91BF91AF919F9181
S1130D408F917F916F915F914F913F912F910F9070
S1130D500FBE0F901F9018951F920F920FB60F920F
S1130D6011242F933F934F935F936F937F938F93AC
S1130D709F93AF93BF93EF93FF93E091AE00F091F5
S1130D80AF000995FF91EF91BF91AF919F918F9122
S1130D907F916F915F914F913F912F910F900FBE73
S1130DA00F901F9018951F920F920FB60F92112457
S1130DB02F933F934F935F936F937F938F939F935F
S1130DC0AF93BF93EF93FF93E091B800F091B90014
S1130DD00995FF91EF91BF91AF919F918F917F9171
S1130DE06F915F914F913F912F910F900FBE0F9094
S1130DF01F9018951F920F920FB60F9211242F93E4
S1130E003F934F935F936F937F938F939F93AF938E
S1130E10BF93EF93FF93E091B600F091B70009956B
S1130E20FF91EF91BF91AF919F918F917F916F91BE
S1130E305F914F913F912F910F900FBE0F901F9094
S1130E4018951F920F920FB60F9211242F933F9370
S1130E504F935F936F937F938F939F93AF93BF93BE
S1130E60EF93FF93E091B400F091B5000995FF91E1
S1130E70EF91BF91AF919F918F917F916F915F910E
S1130E804F913F912F910F900FBE0F901F90189587
S1130E901F920F920FB60F9211242F933F934F93EB
S1130EA05F936F937F938F939F93AF93BF93EF93CE
S1130EB0FF93E091B200F091B3000995FF91EF9197
S1130EC0BF91AF919F918F917F916F915F914F915E
S1130ED03F912F910F900FBE0F901F9018951F9266
S1130EE00F920FB60F9211242F933F934F935F935A
S1130EF06F937F938F939F93AF93BF93EF93FF93DE
S1130F00E091BC00F091BD00309709F00995FF9184
S1130F10EF91BF91AF919F918F917F916F915F916D
S1130F204F913F912F910F900FBE0F901F901895E6
S1130F301F920F920FB60F9211242F933F934F934A
S1130F405F936F937F938F939F93AF93BF93EF932D
S1130F50FF93E091BA00F091BB000995FF91EF91E6
S1130F60BF91AF919F918F917F916F915F914F91BD
S1130F703F912F910F900FBE0F901F901895052E43
S1130F8097FB1EF400940E94D60757FD07D00E94D9
S1130F90FE0707FC03D04EF40C94D60750954095F9
S1130FA0309521953F4F4F4F5F4F08959095809511
S1130FB0709561957F4F8F4F9F4F0895EE0FFF1FE0
S1130FC00590F491E02D0994A29FB001B39FC00154
S1130FD0A39F700D811D1124911DB29F700D811D61
S1130FE01124911D08950E94E407A59F900DB49FBC
S1130FF0900DA49F800D911D11240895A1E21A2E35
S1131000AA1BBB1BFD010DC0AA1FBB1FEE1FFF1FA8
S1131010A217B307E407F50720F0A21BB30BE40BF8
S1131020F50B661F771F881F991F1A9469F760953F
S11310307095809590959B01AC01BD01CF010895F9
S1071040F894FFCF4E
S11310440A53544F50205741544348003738392FDA
S11310543435362A3132332D63303D2B02020202F9
S11310640202020202020102020202020202020259
S10F10740101010102020101020202025A
S90300CA32
